:020000041000EA
:1000000000B5324B212058609868022188439860DF
:10001000D860186158612E4B002199600221596106
:100020000121F02299502B49196001219960352056
:1000300000F044F80222904214D00621196600F024
:1000400034F8196E01211966002018661A6600F04E
:100050002CF8196E196E196E052000F02FF8012189
:100060000842F9D1002199601B49196000215960AB
:100070001A491B48016001219960EB211966A021F2
:10008000196600F012F800219960164914480160C1
:100090000121996001BC002800D000471248134993
:1000A000086003C880F30888084703B5996A0420EC
:1000B0000142FBD001200142F8D103BD02B5186610
:1000C0001866FFF7F2FF186E186E02BD00000240BE
:1000D000000000180000070000035F00212200005C
:1000E000F4000018222000A00001001008ED00E03C
:1000F00000000000000000000000000074B24E7A12
:1001000000200420F7010010C3010010C5010010F9
:10011000C1010010C1010010C1010010C101001097
:10012000C1010010C1010010C101001085A500101F
:10013000C1010010C1010010DBA5001025A60010B0
:10014000CD010010CD010010CD010010CD01001037
:10015000CD010010CD010010CD010010CD01001027
:10016000CD010010CD010010CD010010CD01001017
:10017000CD010010CD010010CD010010CD01001007
:10018000CD010010CD010010CD010010CD010010F7
:10019000CD010010CD010010CD010010CD010010E7
:1001A000CD010010CD010010CD010010CD010010D7
:1001B000CD010010CD010010CD010010CD010010C7
:1001C00000BE00BE00BE00BE00BE00BE00F04BF888
:1001D000103800BEF2EB887188D90010A8D9001041
:1001E0003402001090A31AE700202149086006C8D5
:1001F00081F3088810471F48006800282FD10DA4FC
:100200000ECC002902D000F012F8F9E71A491B4A77
:10021000002000E001C19142FCD1194988471949E9
:1002200088471949884700BEFDE701C901C29A42C3
:10023000FBD37047A8D90010C0000020840D002017
:100240006CE6001000000420000004206CE60010A2
:1002500000100420001004200000000070470B482C
:1002600004F0ACFB0047EFF30580C0B2704700001C
:1002700008ED00E0000000D0880D0020CC21002017
:10028000B93200105D090010753200105756000099
:1002900006005250ABB36053F4D000100600525029
:1002A000861C030204D10010060052505422A29D65
:1002B0000CD1001005005250DE65F4686CE60010A9
:1002C000F8B5C04610B5064C2378002B07D1054B76
:1002D000002B02D0044800E000BF0123237010BDB2
:1002E000900E00200000000098B90010044B10B5DB
:1002F000002B03D00349044800E000BF10BDC046F6
:1003000000000000940E002098B9001010B50FE016
:100310000C4B00221A600C4C052304320B492000C0
:1003200000F0F8FF200001F068F8642009F0E4F91B
:10033000044A136801331360E12212019342E7DC9F
:10034000F3E7C04634160020A41600200005002064
:1003500070B5192001F0C2F9D0231B068022920447
:100360005A62D02424068025AD046561322009F04C
:10037000C3F9A561322009F0BFF9F2E710B51C20DE
:1003800001F0ACF9D0231B06802252059A620022AC
:1003900001211C2001F070F911E01A4A00211170AE
:1003A00020E0194C0A3B04221849200000F0B2FF5B
:1003B000200001F022F817E00A2009F09DF9D0236F
:1003C0001B065A68120F01231340114A1360F3D120
:1003D000104B1B68002BEFD10F4A136801331360D9
:1003E0000A2BDAD00F2BDCD00B4B1B680F2BE3D181
:1003F0000A4A11684B424B411360074B00221A60B6
:10040000DAE7C04620040020A416002000050020E2
:10041000DC1E0020381600200416002040100020AA
:10042000D0B598B0194C052304221949200000F0DA
:1004300071FF200000F0E1FF144C0A22002120008F
:1004400001F0D6F8134B186805F02AFA06000F00E1
:10045000114B186805F024FA029003910F4B1868AD
:1004600005F01EFA0090019132003B000C4904A8EF
:1004700004F078FA04A9200001F0D6F8200001F079
:100480000EF8642009F038F9D6E7C046A41600201B
:10049000000500203C10002088210020B021002011
:1004A00098B9001010B50421182001F0CDF81248B9
:1004B00001688B005C18A200104CA44662447D24A5
:1004C00014615B189A000E4B9C46624413683C21F1
:1004D0004B401B041B0C802149010A431360036835
:1004E0009A00D2189300054A94466344054A5A601C
:1004F000012009F001F9FBE7082100200000054078
:100500000C000540FF0F000010B508F035FC1F215E
:100510001A2001F099F8002200211A2001F0ACF80D
:1005200000211A2001F0C2F8224B1B68E022D20100
:100530001340214A13600BE0204B186805F0B0F916
:1005400002000B001E4805F0F3FB642009F0D4F80C
:100550001C4B04221A60174B1B68DB05FBD5154B9F
:1005600058680004000C184B181A05F077F9174961
:1005700005F01DF905F094F9154A164B04F0E5FC59
:1005800004F09CFD041C05F08BF9114A124B04F099
:10059000DCFC04F093FD011C201C05F003F9074B63
:1005A0001860002105F04AF90028C5D0034B00224D
:1005B0001A60C1E700C0044000D004403C10002095
:1005C000CCB9001000E004401308000000300145E1
:1005D0009A999999999929409999E93F00B589B0D3
:1005E0000122002352421B2103A800F075FA03A840
:1005F00000F0B7FC2AE02D4B1A6893009B189B0073
:100600002B4A944663441A6801211140802252010A
:10061000134319600EE0254B1A6893009B189B004A
:10062000234A944663441A680121114080225201F2
:10063000134319601F4B186805F032F902000B00D4
:100640001D4805F075FB322009F056F801A903A8F2
:1006500000F001FB0023012201A903A800F080FBA8
:10066000002201A903A800F0FDFB124B18601349FA
:1006700005F0EAF80028CED0114B1B78002BBAD039
:100680000A4B19688B005A18920009488446624444
:100690000C4850605B189B0063441A680121914329
:1006A0008022520113431960C4E7C046082100208C
:1006B0000000054088210020E8B9001000007042C9
:1006C00020040020FF0F0000F0B585B08021804C91
:1006D0008900200000F0E4FC07230193013B009314
:1006E0005E337C4A4821200000F074FC002857D17A
:1006F000FEE7D0231B068022D2009A61ADE0D02312
:100700001B06802212039A61C4E0D0231B068022BC
:1007100012019A61C8E00F226A441470002104E0BB
:1007200014786D4B1C6001310132002915D16A4BE0
:100730009B699B06FBD4F3E70F226A440D231370D9
:100740000021002919D1644B9B699B06FBD41578C5
:10075000614B1D6001310132F3E73B780D3B5A429A
:100760005341DBB201373C78002C16D0002BD2D19C
:100770005A4B00229B5EA342DED00F226A441470C3
:1007800000210029E9D1544B9B699B06FBD41478C6
:10079000514B1C6001310132F3E7642008F0ACFFDB
:1007A0004B4C0021200000F078FD4D4E308001219F
:1007B000200000F072FD4B4F38800221200000F035
:1007C0006CFD494D28800321200000F066FD0400E7
:1007D000464B18800023F05E05F040F8444904F0D1
:1007E000FCFF061C434B18600023F85E05F036F84A
:1007F0003F4904F0F2FF404B18600023E85E05F02B
:100800002DF83B4904F0E9FF051C3C4B1860200023
:1008100005F024F8364904F0E0FF041C384B18605A
:100820003849281C05F00AF8002802D0364B00226F
:100830001A703649281C05F007F8002802D0324B00
:1008400001221A70304B1B785BB2002B00D050E7AE
:10085000D0231B068022D2005A612A49201C04F0B2
:10086000EDFF002802D0284B00221A702749201CD7
:1008700004F0EAFF002802D0234B01221A70224B19
:100880001B785BB2002B00D039E7D0231B068022F7
:1008900012035A611E4B1B68002B00D135E7D02391
:1008A0001B06802212015A61301C04F0F9FF05007A
:1008B0000E00184F201C04F0F3FF009001912A0055
:1008C00033001549380004F04DF800234BE7C046CB
:1008D000E014002008050020004003408C21002087
:1008E000B8210020BA210020BC210020BE21002018
:1008F0006DF3E53BA8210020AC210020B0210020B1
:10090000B421002000004041C421002000005041DB
:100910004010002014210020F4B9001000B583B06D
:10092000012801D003B000BD084B9942FAD1084814
:1009300000F044FB012300933B3340228021054813
:1009400000F0DAFC044B04221A60EBE7FFFF000022
:10095000E0140020A41600200821002070B582B009
:1009600005F0F2F996218901364802F025FC0221B2
:10097000002000F069FE0221012000F065FE0A203F
:1009800000F0ACFE132000F0A9FE122000F0A6FE3D
:100990000B2000F0A3FED0231B068022D2005A6257
:1009A000802212035A628021090159628022D202F8
:1009B0005A6259615A61802464000026019601251B
:1009C0000095002322002049204808F04FFB0196A3
:1009D0000095002322001E491E4808F047FB01969F
:1009E0000095002322001C491C4808F03FFB01969B
:1009F0000095002322001A491A4808F037FB019697
:100A00000095002322001849184808F02FFB019692
:100A10000095002322001649164808F027FB01968E
:100A20000095002322001449144808F01FFB01968A
:100A30000095002322001249124808F017FB08F025
:100A4000B7FCFEE70040034004BA00102104001088
:100A50000CBA0010DD05001018BA001009050010CE
:100A600020BA0010A504001028BA0010510300108D
:100A700034BA00107D03001040BA00100D030010BE
:100A800048BA0010C906001010B502490120FFF74E
:100A900045FF10BDFFFF000010B5012805D000285C
:100AA00002D10B4B994209D010BD094B9942F6D1A6
:100AB000084B00221A605A609A60F0E7054B1868EC
:100AC0009968091A0028EFD004F0F0FFECE7C0465F
:100AD000FFFF0000CC1A002010B504000160426046
:100AE000002101720132511E8A41427283720B3021
:100AF0000922002104F0CEFF200010BD70B50400D3
:100B000001252B0002689340D026360673622B0025
:100B100002689340B361F0204000002101F0EAFE3A
:100B20002B0022689340B3624620002101F0E2FED0
:100B300022687368D3401D4207D00024CD204000B6
:100B4000002101F0D7FE200070BD0124F6E770B54A
:100B500004000D000123190002689140D022120602
:100B6000516201688B4093610320002101F0C2FEB5
:100B7000002D0AD0226801239340D022120653612F
:100B80003720002101F0B6FE70BD3C20002101F0AD
:100B9000B1FE226801239340D02212065361052042
:100BA000002101F0A7FEEFE770B506000C0000255C
:100BB00006E0012121403000FFF7C9FF640801353C
:100BC000072DF6DD70BD70B5050001242300026815
:100BD0009340D02636067362230002689340B361C7
:100BE0000320002101F086FE23002A689340B362AF
:100BF0000520002101F07EFE2A687368D3401C4066
:100C00003420002101F076FE200070BD70B5060092
:100C10000025002400E00135072D0ADC64083000BF
:100C2000FFF7D1FF0028F6D080235B421C43E4B2DB
:100C3000F1E7200070BD072906D8002A05D001225F
:100C40008A40037813430370704701228A40037877
:100C500093430370F8E7F8B505000E00FFF74EFF69
:100C6000002800D1F8BD33212800FFF79DFF0024A4
:100C700011E02800FFF7A7FF0200E3170721080093
:100C800018400019C01030185B0FE7183940C91A16
:100C9000FFF7D1FF01343F2CEBDDE3E770B5050032
:100CA0000E00FFF72BFF00280DD055212800FFF77D
:100CB0007BFF002404E0315D2800FFF775FF01345D
:100CC000072CF8DD70BD024805F000F8FAE7C046D1
:100CD00050BA001010B50400FFF710FF002804D030
:100CE000CC212000FFF760FF10BD024804F0EEFFAA
:100CF000FAE7C04664BA001000230BE07C204042B3
:100D00001043C0B214E008221043C0B200E0400813
:100D100049080133072B10DC02004A40D207F6D500
:100D200042080007EAD50420824384381043C0B249
:100D30000207E8D508229043EAE7704770B505003E
:100D40000024002004E02B19D97AFFF7D5FF0134E5
:100D5000072CF8DDEB7C181A431E9841C0B270BD19
:100D6000F8B504000D001600002B23D0FFF7B2FFEA
:100D7000314D44212000FFF717FF237A002B52D07A
:100D8000637A002B3DD0A27A012361688B40002A50
:100D90002ED0D02212065361280001F0D7FD6168E1
:100DA000A27A01238B40002A26D1D0221206536159
:100DB00000253AE0FFF772FF2B78282B06D0222B74
:100DC00004D01D4D3B2BD4D19625D2E7E17B60208A
:100DD00002000A40084207D0174D202A06D0402AB8
:100DE000F0D17825FF35EDE75E25F6E7BC25F6E77F
:100DF000D02212069361CFE7D0221206936100251C
:100E000013E00126330022689340D0273F067B621F
:100E10003300226893407B61280001F097FD23682E
:100E20009E40BE6201E0002E01D12800F8BD2800DE
:100E300001F08CFD0025F8E7EE02000070B505001A
:100E4000FFF72CFFBE212800FFF7AEFE002405E0CF
:100E50002800FFF7DBFE2B19D8720134082CF7DDD0
:100E600070BD0000F8B504000F001600FFF7E6FFA4
:100E70002000FFF763FF002853D1207B0002E37AB4
:100E8000C018030401D5284B584004F0E7FC051CAA
:100E90003B78102B24D00BD33B2B09D8222B07D324
:100EA000223BDBB201229A401300204A134203D1B5
:100EB0001F4804F00BFF04E0F621890504F08DFCC7
:100EC000051C002E2ED01B49281C04F086FC1A4954
:100ED00004F06DFC8421C90504F064FC051C21E0CC
:100EE000607C04F0B6FC071CA07C04F0B2FC041C7F
:100EF000FC218905281C04F070FC04F059FDFA213E
:100F0000890504F04AFC051C391C201C04F045FC32
:100F1000211C04F04CFC011C281C04F043FC051CA3
:100F2000CFE7064D281CF8BD0000FFFF410000027E
:100F300074BA0010000010410000A04000007AC404
:100F400010B50400002A09D0FFF7C4FEB421200028
:100F5000FFF72AFE2000FFF736FE10BDFFF79EFECA
:100F6000F4E710B582B00400006800F0B7FB6068D9
:100F7000431C04D123000B332100143105E000F0A1
:100F8000ADFBF7E700221A7001338B42FAD1082239
:100F90000021684604F07EFD012269462000FFF72B
:100FA000CFFF01235840207202B010BD10B5024996
:100FB0000120FFF771FD10BDFFFF00006423C38116
:100FC0001C3B0374443B03700023438080338380C5
:100FD00070470000F0B587B004000CA800780DAD94
:100FE0002D782174A26065732073E38117236B440D
:100FF00000221A70032100F027FB607B032100F020
:1010000023FB207B0022012100F036FB607B0022C5
:10101000012100F031FBE28953019B1A99008918E4
:10102000C900A06807F032FEA668277C01F046FDE3
:1010300004000D1E1EDB0100154A002312196B412E
:101040009D4202D804D1914202D901225242D317C3
:10105000002B15DB02920393002300930133172228
:101060006A443900300007F068FE00280EDD0120D8
:1010700007B0F0BD074B084A3F21084802F0FEF8D0
:10108000044B054A3F21054802F0F8F80020EFE73D
:1010900050C3000090BA0010ACBA0010E4BA0010BF
:1010A00041807047F0B5C64600B584B04174130A5C
:1010B0008374C2748568037C98461130040001F083
:1010C000FDFC06000F1E1CDB0100144A00239219D0
:1010D0007B419F4202D804D1914202D9012252425F
:1010E000D317002B13DB02920393002300930333E7
:1010F00022004146280007F001FE04B080BCB8463B
:10110000F0BD074B074A3F21074802F0B7F8044BF0
:10111000044A3F21044802F0B1F8C04650C3000021
:1011200090BA0010ACBA0010E4BA001010B5040078
:10113000012A19D080235B0062881343A2881A43D6
:1011400011430A4A0A4392B201212000FFF7AAFF85
:101150008022120203212000FFF7A4FF00220221B7
:101160002000FFF79FFF10BD0023E5E70080FFFF91
:10117000F0B5CE46474680B585B00400417483681B
:101180009846037C99460500113501F097FC06004E
:101190000F1E43DB01002D4A002392197B419F4221
:1011A00002D804D1914202D901225242D317002B16
:1011B0003ADB029203930023009301332A0049464D
:1011C000404607F09BFDA3689846237C994601F0B2
:1011D00075FC06000F1E2DDB01001C4A002392192E
:1011E0007B419F4202D804D1914202D9012252424E
:1011F000D317002B24DB02920393002300930233C6
:101200002A004946404607F098FD637C1B02A07CFB
:10121000184305B0C0BCB946B046F0BD0C4B0D4AF2
:101220003F210D4802F02AF8094B0A4A3F210A489B
:1012300002F024F8064B074A3F21074802F01EF847
:10124000034B044A3F21044802F018F850C3000041
:1012500090BA0010ACBA0010E4BA001010B5040047
:101260000021FFF785FF2278104183B2002A01D1C7
:1012700000B210BD80221201934202D30248034300
:101280009BB218B2F5E7C04600F0FFFF10B5012190
:10129000FFF76EFF80B2C00B10BD10B5040003292C
:1012A00028D8022920D009D800290FD0012912D12D
:1012B000A0210022C901FFF739FF0CE003290AD160
:1012C000E0210022C901FFF731FF04E08021002264
:1012D000C901FFF72BFF2000FFF7D8FF0028FAD045
:1012E0002000FFF7BBFF10BDC0210022C901FFF79E
:1012F0001DFFF0E70020F6E710B502AC247801707E
:101300004270D208827083730023037503614475B1
:1013100010BD000070B50600080015001C00B1608B
:10132000327373730A4907F0B1FC0321280000F0FF
:101330008BF90321200000F087F900220121280009
:1013400000F09AF900220121200000F095F970BD0B
:10135000801A060000B585B06B4619735A73817BFD
:10136000806800230093023303AA07F0BBFC05B09A
:1013700000BD10B50A008021FFF7ECFF10BD000092
:1013800010B51930014A04F085FB10BD01040000BE
:1013900010B582B004002021FFF7EBFF01212000EF
:1013A000FFF7E7FF21212000FFF7E3FF00212000E6
:1013B000FFF7DFFF7F212000FFF7DBFF2221200066
:1013C000FFF7D7FF00212000FFF7D3FFA1780139F5
:1013D000C9B22000FFF7CDFF402363762200193207
:1013E000217863780733DB104B43A17BA06800248E
:1013F000009407F077FC02B010BD30B587B005004F
:1014000017220021684604F045FBAE236A4613709C
:101410008E3B53702033D370A12269460A71073284
:101420004A712032CA710B320A7202328A72553AFC
:10143000CA7259320A7302328A73CB7341330B7406
:101440007E334B745B3B8B740233CB74193B0B754F
:1014500022338B756B78013B8B712B7D002B09D070
:10146000222269464A73002B06D010236A46537520
:10147000002409E0F122F4E71423F7E76B46195D35
:101480002800FFF776FF0134162CF7D90021280039
:10149000FFF776FF2800FFF77BFF07B030BD10B5E0
:1014A000FFF776FF10BD70B500291FDB0478A1425D
:1014B0001CDA002A1ADB4478A24217DAD61707246E
:1014C00025003540AD18ED10760F92192240921B81
:1014D00012B2063C94401930C90049190131411833
:1014E000002B08D0012B02D0013308D070BD0B783F
:1014F0001C430C70FAE70B78A3430B70F6E70B78EC
:101500005C400C70F2E70000F0B5D6464F46464608
:10151000C0B506000F0090469A46203BDBB25F2B19
:1015200001D93F239A46737D002B23D15246203A9E
:1015300053009B185B0004339A460023994611E040
:101540004B46F91843461A1901232B4012B209B22F
:101550003000FFF7A8FF6D080134072CF0DD0123F0
:101560009C46E1444B46052B24DC53441E4AD55C83
:101570000024F2E70023994611E001232B40424664
:101580001219494679183000FFF78DFF013464B213
:101590006D08072CF1DD4B4601335BB299464B4693
:1015A000042B07DC53469B0053444B440F4AD55C45
:1015B0000024EEE70024072C11DC43461D192DB250
:1015C000B91D00232A003000FFF76DFFB9B20731C3
:1015D00000232A003000FFF766FF0134EBE7E0BC90
:1015E000BA46B146A846F0BD2CC000102CBB001076
:1015F000C1700271704770B504000D0004E0002353
:10160000E3702379083323712B78002B0BD001353D
:101610000A2BF4D02279E1782000FFF775FFE378F8
:101620000833E370F0E770BD70B504000D000022D0
:101630000021FFF7DDFF29002000FFF7DCFF20007D
:10164000FFF72DFF70BD000010B58300084A9446D7
:1016500063441C6840226240C0241440802252012E
:1016600013431C60C000034B9C466044416010BDA6
:1016700004C001400040014080000B4B9C46604488
:1016800000290DD00823002A0CD00422134302683D
:1016900053400C22134080225201104303607047D4
:1016A0000023F0E70022F1E704C00140002909D03F
:1016B0008000094B9C46604480239B0118434023D3
:1016C000036070478000044B9C466044C0239B012C
:1016D000184340230360F4E704C0014010B5012320
:1016E0008340D0221206936293610521FFF7ACFF7D
:1016F00010BD0000EFF3108072B6034B1B68002B87
:10170000FBD0BFF35F8F70472C0100D0BFF35F8F1A
:10171000024B00221A6080F3108870472C0100D021
:10172000F8B506000C001500FFF7E4FFE308F71812
:10173000F15C07222240012393400B4205D1DBB22A
:101740000B433B70FFF7E2FFF8BD2100280001F0DA
:101750002FFEF0B583B00600019114001F00FFF7C3
:10176000C9FF00E00134BC420CD8E308F518F35C73
:101770000721214001228A401A42F3D1D2B21A43F2
:101780002A7001E001246442FFF7C0FF002C02DB55
:10179000200003B0F0BD019B002BF9D0089801F0A8
:1017A00007FE0000034B1B6802201840431E9841AF
:1017B000C0B2704700C00640002307E0054A9A18EF
:1017C0009200BFF35F8F0021116001331F2BF5D909
:1017D0007047C04640000034054A1078431CDBB215
:1017E0001370172B02D9130010221A707047C046CD
:1017F0002104002000B583B00100044B00931F2397
:1018000018220348FFF7A5FF03B000BD54C2001023
:1018100008160020074B9B68103080001950BFF35A
:101820005F8FBFF35F8F044B0021196082F3108834
:101830007047C04600ED00E0240100D010B5091A41
:10184000081F0A4B9C466144094A914208D8C307C5
:1018500006D440104005400D064B184380B210BD21
:10186000054B064A9921064801F008FDFC070000D7
:10187000FE0F000000E0FFFF70C20010D0C4001097
:10188000A0C2001010B5091A04394C08090B08D180
:101890004905490D064A11430180064B2343438005
:1018A00010BD054B054AA121054801F0E7FCC046E3
:1018B00000F0FFFF00F8FFFFE0C20010A4C400101A
:1018C000A0C2001001238340034A10681840431E41
:1018D0009841C0B27047C04600E100E0002904D042
:1018E000034B1860034B18607047034B1860FBE70D
:1018F00080E200E000E100E080E100E010B50123BB
:1019000083401800FFF7EAFF10BD00000123834069
:10191000014A13607047C04600E200E0024B9B683A
:1019200010308000C058704700ED00E010B5FFF7A0
:10193000F5FF002805D0054BC01A2F2803D8012039
:1019400010BD0020FCE70020FAE7C0462404002078
:1019500070B504000D00EFF3108672B60C4B1B68D7
:10196000002BFBD0BFF35F8F2000FFF7D7FF094BA1
:10197000984201D0A84205D1320029002000FFF78B
:1019800049FF70BD044B054A7C21054801F076FCF7
:10199000240100D0CD010010F0C2001004C50010D9
:1019A000A0C20010F0B5DE4657464E464546E0B5AB
:1019B00089B0814601911500EFF3108A72B6744B1D
:1019C0001B68002BFBD0BFF35F8F724B0027DF57E4
:1019D000002F40DB7C00E419A4006F482418062285
:1019E000A2566C4B1A706D4B9A684B4610339B0095
:1019F000D35898461E001B1A2F2B38D9684B984590
:101A00002FD105AE674B33807B009B46D8198000F1
:101A1000614B9846404402306349FFF70FFF7080E6
:101A2000624BB380FF23B371F571019B07935F4451
:101A3000BF0047440ECE0EC701231C43A0465246AA
:101A400041464846FFF7E6FE09B0F0BCBB46B24649
:101A5000A946A046F0BD564B564ACD21564801F046
:101A60000DFC564B534AD421534801F007FCC043A8
:101A700040440C2102F0F6FF002912D101239E43BD
:101A8000B34633000026DA79AA4211D90621595605
:101A900000290CDB4A00521892001E003E4B9B1896
:101AA000F1E7474B434AE021434801F0E7FB1E00C2
:101AB000002E3BD005AB434A1A80813A5A80062358
:101AC000F3560293002B18DABD20000205AB9B46AB
:101AD0009880029A9A71DD71019A0792301D210057
:101AE000FFF7ACFEB080B7717B00DB199B002A4F7B
:101AF000FF185B4607CB07C7A1E77800C019800035
:101B0000254BC0180430321DB388D90A1C2907D1CF
:101B10005B055915023149005118FFF78FFED5E7D3
:101B2000294B2A4AA721244801F0A8FB05AE1D4BEA
:101B300033807B000293D8198000174A9046020038
:101B400042440392901C1849FFF778FE7080039A74
:101B5000101D5946FFF772FEB0801D4B5A46414694
:101B6000521A524153431B0DB371F571019A0792FA
:101B7000029B9C466744BF0047440ECE0EC7114BE4
:101B80005A461380813B538001231C43A04656E7ED
:101B9000240100D0C52100202404002000ED00E035
:101BA000CD01001000A1FFFF5404002000BDFFFF85
:101BB00028C30010ECC40010A0C2001050C30010D5
:101BC00078C3001001480000ECC30010DCC4001012
:101BD000AAAA0000F0B5CE46474680B583B00600FD
:101BE0000D00EFF3108872B6564B1B68002BFBD02C
:101BF000BFF35F8F544B9A6834001034A300D7585A
:101C0000524B9F4207D0AF4200D199E00197504B11
:101C1000FB1A2F2B09D9424639003000FFF7FAFD95
:101C200003B0C0BCB946B046F0BD3000FFF74AFE75
:101C3000814600213000FFF761FEBFF35F8FFEF7A2
:101C400012FB002801D0844211D10123019C9C4346
:101C50000022A368AB4212D00622A256002A0DDB56
:101C600053009B189B002200394CE418F1E72C210B
:101C7000384B394AFF31394801F000FB2200AB42B2
:101C800057D106256557002D39DB6B005B199A008B
:101C90002F4B9B189A68A260DA79E27106229A5655
:101CA000A2719B795BB2002B10DABD200002A080EC
:101CB0006B005B199B00264AD318294A1178997149
:101CC000157049463000FFF719FEA4E7201D6B0090
:101CD0005B199B001E4A9B181A1D9B88D90A1C2958
:101CE00007D15B055B15023359005118FFF7A6FDBC
:101CF000DDE71C4B1C4AA721184801F0BFFA002859
:101D000012D1002A0ED0FF239371184B9380144AEE
:101D10001378A371164B0E49641A644163431B0D7B
:101D20001370CEE7094FF2E7201D1249FFF7AAFD15
:101D3000C7E76021104B084AFF31084801F09EFABE
:101D4000024F68E7240100D000ED00E0CD01001053
:101D50002404002004C40010BCC40010A0C2001061
:101D6000C5210020ECC30010DCC4001000BDFFFF43
:101D7000AAAA00005E04002028C4001070B5040068
:101D8000012606432D4BF31A2F2B28D8FEF76BFAAA
:101D900000282BD0EFF3108C72B6294B1B68002B58
:101DA000FBD0BFF35F8F274D22002449521A5241C6
:101DB00055432D0D6DB2244B9B6880001B58B342D8
:101DC0001BD00022032A32D853009B189B001B49CA
:101DD000CB189B795BB2AB421FD00132F2E7C22134
:101DE0001A4B1B4A49001B4801F048FA88211A4B3C
:101DF000174AFF31174801F041FA134B9B68174A05
:101E00001A50174B1A78A2711D70BFF35F8F0C4BDD
:101E100000221A608CF3108870BD080053009918D6
:101E200089004118FF268E710E4A8A80E9E7CC218D
:101E30000D4B074A4900074801F020FA240400200E
:101E4000240100D0AAAA000000ED00E030C4001078
:101E500088C40010A0C2001058C40010CD010010AA
:101E6000C521002000BDFFFF64C400100022044B08
:101E700002E0044902C30132072AFAD97047C0467A
:101E800000E400E08080808000B583B00100D023B2
:101E90001B061B680648C018064B0093052300224A
:101EA000FFF757FC002801DB1F23181A03B000BD01
:101EB000A42100206CC40010024B9C4661448900A0
:101EC000016070474000003470B505000C00080048
:101ED00000F0E8FD200000F0CDFE0849200000F0F1
:101EE0000DFEFFF779FC064B9C466044800068605D
:101EF0002C75A400034BE55070BDC0460D220010A8
:101F000040000034E81E00200A4B1A68EFF31081ED
:101F100072B61368002BFCD0BFF35F8F054B1B68B4
:101F2000BFF35F8F00221A6081F3108840BF00204A
:101F3000002170470421002010B5002922D0036839
:101F40001B7B99421ED8174B9C466144090183684C
:101F50009C4661440C684968002A19D003681B7BC1
:101F60009A4215D883680F488446624412019A1831
:101F700010685368020001208B4201D80ED0002067
:101F8000C0B210BD084B094A3B21094801F076F95F
:101F9000054B064A3B21064801F070F9A242EFD8F2
:101FA000EDE7C046FFFFFF0F6CC50010CCC7001067
:101FB00034C5001010B500291ED0037B99421BD8F0
:101FC0004B005B18033B0468A4466344002919D006
:101FD000002A1DD0914221D0002A25D0047BA242A4
:101FE00022D80468500080180338201881701978AE
:101FF00000291FD11A7010BD104B114A68211148D9
:1020000001F03CF9104B114A6F310E4801F036F9DE
:102010000F4B0E4A70210B4801F030F90D4B0B4A63
:102020007121084801F02AF9044B054A6821054846
:1020300001F024F941701A70DDE7C046A0C5001018
:1020400038C80010BCC5001008C6001014C8001025
:1020500014C6001020C6001070B506000D00140054
:10206000002914D0002A14D080687368984700288B
:1020700006D0220029003000FFF79CFF280007E06F
:102080002A0021003000FFF795FF200000E010003B
:1020900070BD0800FCE70000F0B583B005000092B9
:1020A00001930AAB1C780BAB1F78002C26D0036879
:1020B0005A7B944207D10123002B19D1002C3BD12C
:1020C000200003B0F0BD002C0CD01A7B944209D83C
:1020D0001A6863001B19033BD3189B78002BEBD0C5
:1020E0000123E9E73E4B3F4A68213F4801F0C6F82B
:1020F0003E4B3F4A65213F4801F0C0F803689C7B96
:10210000002CDBD012D01A7B94420FD86200121937
:10211000033A19688C46624451789973002900D1BA
:10212000D9730023937053701370C7E72C4B2D4A5B
:1021300068212D4801F0A2F8002C3AD02B681B7BB7
:102140009C4236D82C4BE3181B01AA689446634482
:10215000009A1A60019A5A60089A9A60099ADA609D
:102160002E68002C2BD030D0337B9C422DD86300BE
:102170001B19033B32689446634400229A705A70DC
:102180001A70717B22003000FFF766FF7073844283
:1021900000D095E7287D009A019B00F0F7FC061E11
:1021A00001D0002F17D00C9B002B00D188E71E70A8
:1021B00086E7124B124A3B210E4801F05FF8114BA3
:1021C000114AA521084801F059F8054B054A682134
:1021D000054801F053F82868210000F0FFFEE2E70F
:1021E000A0C5001038C80010BCC5001038C60010CB
:1021F00044C8001034C50010FFFFFF0F6CC500106D
:10220000CCC7001030C5001028C80010F0B5DE465D
:1022100057464E464546E0B58BB0099000230893DB
:102220008200B24BD658370032E0B14BB14A3F2161
:10223000B14801F023F8B14BB14A3B21B14801F05C
:102240001DF8B14BB14A8C21AE4801F017F8B04BE4
:10225000AE4A9021AB4801F011F8A84BAD4A40219D
:10226000A84801F00BF82A686B68099800F08EFC0A
:1022700000239A4698467B68BFF35F8F00221A605E
:1022800086F310884346002B51D1002800D126E167
:1022900000F014FC02000B1EC7DB0020002106909A
:1022A00007917868EFF3108672B601680029FCD0B8
:1022B000BFF35F8F396888464C7B002C32D0BAD090
:1022C000097B8C42B7D8944965182D01B9688C46B2
:1022D000654428686968801A99410029C3DC01D1E6
:1022E0000028C0D10021404600F06EFEA042A8D1D7
:1022F0002A686B6806920793AB689846EB689A4623
:102300004346002BA3D0002CA7D03B681B7B9C42EC
:10231000A3D8631EFA68D35C08931B021843386184
:102320000020A8E700239A4698460020A3E7089BD0
:102330001B022343994651461800C04705000E0072
:102340007A68EFF3108B72B6136859424B41D9B2D9
:10235000002BF9D1BFF35F8F002E26DB002E52DD5C
:102360003B69002B53D04B4572D100F0A7FB020014
:102370000B1E73DB0100180052197341984202D8FA
:1023800004D1914202D901225242D317002B6BDBB8
:10239000002104910131039102945146019141467B
:1023A00000913800FFF778FE49E03B69002BD5D05B
:1023B0004B451CD1069A079B10001900521BB341D4
:1023C000994202D804D1904202D901225242D31735
:1023D000002B12DB0021049101310391029451463C
:1023E0000191414600913800FFF756FE27E04B4B24
:1023F000464A9F21434800F041FF3D4B3D4A3F2163
:102400003D4800F03BFF002E01D1002DA8D13A68D5
:10241000002C45D0537B9C422CD1012100293FD177
:10242000D37B002B42D1D473002C52D03B681B7B52
:102430009C424ED8FA68013C135D013313550023CA
:102440003B617A68BFF35F8F13608BF310881FE7DF
:10245000324B2E4AA2212B4800F010FF244B254A74
:102460003F21254800F00AFF214B224A3F21224804
:1024700000F004FF002C0DD0137B9C420AD86300AF
:102480001B19033B1068844663449B78002BC5D01E
:102490000121C3E7224B234A6821234800F0EEFEC6
:1024A000224B234AF621204800F0E8FE002B0AD0F8
:1024B000117B8B4207D85900CB18033B11688C461F
:1024C00063445C70AFE7164B164A6821164800F06B
:1024D000D5FE0A4B0F4A40210A4800F0CFFE0BB050
:1024E000F0BCBB46B246A946A046F0BDE81E00209F
:1024F00090BA001098C70010E4BA00106CC5001024
:10250000CCC7001034C5001060C60010B0C7001062
:1025100078C60010F0C70010FFFFFF0F84C6001040
:10252000A0C5001038C80010BCC50010C0C60010FF
:1025300004C8001010B50A4B5B68002B04D00A21B8
:102540000848FFF7B9FC10BD054C2300064A1021CE
:10255000206800F059FC03212000FFF7B5FCEEE7EE
:102560006C04002004210020391F001010B5064B18
:102570005B68002B01D0044810BD044B044A5C2169
:10258000044800F07BFEC0466C040020E4C6001046
:10259000D8C7001034C50010F0B5DE4657464E4689
:1025A0004546E0B58BB0804616001F00149B9A4646
:1025B000159B994616AB1B789B461F2302AA94468F
:1025C000634400221A7032E0002809D042461268A3
:1025D000127B904204D8421E4146C9688A5C48E09A
:1025E000434B444A4021444800F048FE0798002BE2
:1025F00075D05B46002B72D04946D04704000D00D1
:1026000003000B4300D171E0002946DB00F056FACD
:1026100006000F1E55DB36196F41B94202D804D1AE
:10262000B04202D901267642F717002F4FDB43460E
:102630005A68EFF3108472B6136859424B41D9B20D
:102640000791002BF8D1BFF35F8F1F3302AA944686
:10265000634404930023039302934B460193534630
:10266000009332003B004046FFF716FD031EABD13E
:10267000020041464968BFF35F8F00250D6084F377
:102680001088002B29D01F2302A98C4663441B7895
:10269000002BABD112021043A9E732003B00361BDE
:1026A000AF41BB4202D804D1B24202D901267642E0
:1026B000F717002FBBDA114B114A3F21114800F0E8
:1026C000DDFD0E4B0E4A3F210E4800F0D7FD0B4BAF
:1026D0000B4A3F210B4800F0D1FD012040420BB0D6
:1026E000F0BCBB46B246A946A046F0BD0798F6E747
:1026F0006CC50010F0C7001034C5001090BA00106F
:1027000098C70010E4BA0010F8B504004268EFF36F
:10271000108572B6136858424341D8B2002BF9D1E4
:10272000BFF35F8FCBB22268567BB3421BD101202F
:10273000002848D0206988422BD0090AC9B2002B52
:102740002ED02068007B83422AD8581EE668305C71
:1027500088422BD000206368BFF35F8F00221A608D
:1027600085F31088F8BD002B0DD0167BB3420AD834
:102770005E00F618033E1768BC466644B678002E25
:10278000D6D00120D4E7134B134A6821134800F038
:1027900075FD8521124B134A4900134800F06EFD68
:1027A000124B134A4021104800F068FD1900100038
:1027B00000F014FC0028CED112210E4B094AFF3143
:1027C000094800F05BFD23698B42C4D100232361DB
:1027D000C1E7C046A0C5001038C80010BCC5001035
:1027E00008C7001080C7001034C500106CC5001069
:1027F000F0C700102CC70010F0B587B006000F001E
:10280000FDF731FD00281FD106246442E517A41905
:102810007D41BD4202D803D1B44201D90024002534
:10282000002D14DB0494059500F048F902000B1EFE
:1028300013DBA41A9D41002D17DC14D030003900A1
:1028400000F048F907B0F0BD234800F0B1FD234B7C
:10285000234A3F21234800F011FD204B204A3F210D
:10286000204800F00BFD002CE8D0FFF77FFE00238E
:10287000029301931C4B0093049A059BFFF78CFE77
:10288000002818DADAE7002300E00023002BD5D176
:10289000164B1A68EFF3108172B61368002BFCD048
:1028A000BFF35F8F114B1B68BFF35F8F00221A606D
:1028B00081F3108820BF0499059A0D4B5B6A9A42F8
:1028C000E3D80B48806A884203D29A42DBD00123C6
:1028D000DCE70123DAE7C04630C7001090BA0010E9
:1028E00098C70010E4BA0010091F0010042100204E
:1028F00000400540F8B504000D0000F0DFF80200CC
:102900000B1E10DB20002900801859418B4202D891
:1029100004D1824202D901204042C117002908DBBC
:10292000FFF76AFFF8BD064B064A3F21064800F054
:10293000A5FC034B034A3F21034800F09FFCC0461F
:1029400090BA001098C70010E4BA001010B5FA222F
:1029500092000023002102F003FFFFF7CBFF10BD20
:1029600070B584B006000C00FFF700FE0023029350
:102970000193194B009332002300FFF70DFE051E53
:1029800011DD20BFFFF7F2FD2900FFF7BDFE134B5D
:102990005B6A9C421BD8114A926AB2421AD29C428C
:1029A00013D0012014E00D4B5B6A9C4209D80B4AFE
:1029B000926AB24207D29C4201D0012008E0002076
:1029C00006E0002004E0012002E0002000E00020FA
:1029D00004B070BD0120FBE7091F00100040054056
:1029E000026843680849496A8B4209D80648806AE8
:1029F000904207D28B4201D0012002E0002000E08B
:102A0000002070470120FCE7004005400260436061
:102A100000487047E129001070B5EFF305833F20AF
:102A200018401038EFF3108C72B6194B1B68002B4E
:102A3000FBD0BFF35F8F012319008140154A51631A
:102A4000154A12781400C440234214D0114B5C6A1A
:102A50008300124D5B599C4206D38300104C1B59D6
:102A60008A430D490A7007E00A4A031D9B009958E2
:102A70009950002300E00023BFF35F8F044A002138
:102A800011608CF31088002B00D0984770BDC046B1
:102A9000280100D000400540C921002078210020F5
:102AA000F414002010B50100024A0348FEF738FE76
:102AB00010BDC0465CC80010C3210020044B5B6AF7
:102AC000034A906A1900536A9942F9D17047C04687
:102AD00000400540084B5B6A01E0074B5B6A8B4294
:102AE000FBD301E0044B5B6A8B4203D1024B9B6A30
:102AF0008342F7D37047C0460040054070B50400DC
:102B00000D00EFF3108672B61B4B1B68002BFBD039
:102B1000BFF35F8F002D1CD02000FEF7FFFE174B88
:102B200083420BD019002000FEF712FF0121200084
:102B3000FEF7E4FE0123A340114A1360A400114BE9
:102B4000E550BFF35F8F0C4B00221A6086F31088AC
:102B500070BDA2000B4B0021D1500122A2400A49B6
:102B60000B7893430B7005492000FFF733F80021E1
:102B70002000FEF7C3FEE4E7280100D0192A001068
:102B800038600540F4140020C9210020F0B5DE466D
:102B900000B584B00400150001921E000293FFF7F7
:102BA0008DFF03958E4202D84ED185424CD9EFF36A
:102BB000108B72B6274B1B68002BFBD0BFF35F8FC7
:102BC000254A17780125A540EBB23B431370234BF0
:102BD0005D63221D92000199D150A2002049029804
:102BE00050501B6A2B4212D11C4B1B6C2B4208D03D
:102BF0000020BFF35F8F174B00221A608BF3108801
:102C000023E0184B184AC121184800F037FBFFF7A2
:102C100055FF8E4214D802D1039B834210D80E4B2D
:102C20001B78BB420ED00D4B1D625D631F2004401C
:102C30000123A3400E4A1360074B1F701E38D8E7CC
:102C40000020D6E70120D4E7012004B080BCBB46B9
:102C5000F0BDC046280100D0C92100200040054039
:102C60007821002080C80010E8C80010A4C8001017
:102C700080E200E0EFF3108C72B60B4B1B68002B68
:102C8000FBD0BFF35F8F01238340084A13620849DA
:102C90000A789A430A70BFF35F8F034B00221A60D1
:102CA0008CF310887047C046280100D000400540D2
:102CB000C921002010B500291ED0037B99421BD8E2
:102CC0004B005B18033B0468A4466344002919D0F9
:102CD000002A1DD0914221D0002A25D0047BA24297
:102CE00022D80468500080180338201881701978A1
:102CF00000291FD11A7010BD104B114A68211148CC
:102D000000F0BCFA104B114A6F310E4800F0B6FAD1
:102D10000F4B0E4A70210B4800F0B0FA0D4B0B4AD6
:102D20007121084800F0AAFA044B054A68210548B9
:102D300000F0A4FA41701A70DDE7C046A0C500108B
:102D4000F0C90010BCC5001008C60010DCC9001096
:102D500014C6001020C6001070B506000D00140047
:102D6000002914D0002A14D080687368984700287E
:102D700006D0220029003000FFF79CFF280007E062
:102D80002A0021003000FFF795FF200000E010002E
:102D900070BD0800FCE7000010B500234373013349
:102DA0008373037BC3730123027B9A4214D9002BE4
:102DB0000CD0027B934209D85A00D218033A01681A
:102DC0008C4662440133DBB25370EDE70B4B0C4A87
:102DD00068210C4800F052FA002A09D0924207D824
:102DE000016853009A18033A8A180023537010BDE3
:102DF000024B034A6821034800F040FAA0C50010C6
:102E0000F0C90010BCC5001010B5017342608360AA
:102E1000FFF7C2FF10BD000070B50400081E00D10E
:102E200070BD002934D0237B994231D84B005B1808
:102E3000033B2268944663445A78002AF0D02DD090
:102E4000237B9A422AD853009B18033B21688C4667
:102E500063445D7800215970002825D0237B984277
:102E600022D843001B18033B21688C466344002191
:102E7000597001002000FFF76FFF060029002000B5
:102E8000FFF7CAFF020031002000FFF765FFC7E728
:102E9000084B094A6821094800F0F0F9054B064A39
:102EA0006821064800F0EAF9024B034A682103480A
:102EB00000F0E4F9A0C50010F0C90010BCC5001076
:102EC00070B505000C001600002928D02DD0037B1A
:102ED00099422AD84B005B18033B0268944663442E
:102EE0005A78002A27D19A78002A2AD11978FFF730
:102EF00093FF0300002E03D0EA7B002A27D1EC7356
:102F0000002B37D1002C49D02B7B9C4246D82B6814
:102F100061000C19033C1C190023637070BD224B27
:102F2000224A3821224800F0A9F9224B224A68217E
:102F3000224800F0A3F9224B1C4A3A211C4800F019
:102F40009DF9204B194A3B21194800F097F9002AB6
:102F50000AD0297B8A4207D851008A18033A296887
:102F60008C4662445470CAE7124B134A68211348D6
:102F700000F084F9002B0BD02A7B934208D8430041
:102F80001B18033B2A689446634400229A70B9E7F1
:102F9000084B094A6821094800F070F9054B064AB8
:102FA0006821064800F06AF904C90010C8C9001079
:102FB0000CC90010A0C50010F0C90010BCC500105D
:102FC00044C900106CC9001070B504000A00457BAC
:102FD0002900FFF775FF6073280070BD70B504000D
:102FE000002967D0437B8B420ED0002911D0037B90
:102FF00099420ED84B005B18033B0268D0188378C7
:10300000002B0CD1002056E00121FFF7DDFF01204D
:1030100051E0294B294A6821294800F02FF9002B5B
:1030200020D0227B93421DD85A00D318033B22683C
:10303000D2182568EB5C8B421AD0002B1BD0227B68
:10304000934218D85A00D318033B2268D2185378F9
:103050008B4216D0002BF0D11A4B1B4A67211B481C
:1030600000F00CF9144B154A6821154800F006F9D8
:103070004378137007E0104B104A6821104800F0A5
:10308000FDF84378537000238370437001222000C1
:10309000FFF716FF0200617B814205D02000FFF799
:1030A0005BFE6073012006E0094B074A6D2107486B
:1030B00000F0E4F8002070BDA0C50010F0C90010B9
:1030C000BCC5001064C40010B0C900100CC90010C9
:1030D00090C9001010B50400FEF77EFB010020002F
:1030E000FEF7EAFEFF232371BFF35F8F10BD10B51B
:1030F0000400FEF771FB01002000FEF7DDFEFF2358
:10310000237100236371BFF35F8F10BD034B9C4697
:10311000614489000160BFF35F8F70474000003455
:1031200010B504000120FEF765FB01002000FFF749
:10313000EDFF10BD70B504000D00062000F052FA3E
:10314000C000290001F08EFCC60908D00E4B9E423B
:1031500017D87F23184001303500460800E00125CC
:103160006562A6622C348020800104430023236022
:10317000062000F037FA8000A901891901F072FCDD
:1031800070BD0026014DEBE7FEFF0000FFFF0000D1
:10319000002909D00A22064B9C466044434258410C
:1031A0004000044BC252704780225200F3E7C046F1
:1031B0000080FCBF8C21002070B505000C000620AB
:1031C00000F010FA002829D0164B9D4227D080220B
:1031D000D203154B1A60154B1A60154B9B681100F2
:1031E0009943FAD100212800FFF7D2FF21002800DF
:1031F000FFF7A0FF2C002C34E96A60224A406E21C0
:10320000114080225201224311600A4B2B6380231C
:103210009B01234310221A600323AB6470BD8022FC
:103220001204D6E70080034000E0004000F00040B8
:1032300000C000400103000000BEFDE703000A4A91
:103240001268002A08D0084A1068C318074A9A4230
:1032500006D3054A13607047034A05491160F2E737
:1032600001204042F7E7C046D81A002000000420A1
:10327000CC21002010B5FFF7DFFF000010B582B0B1
:103280000C001900002A0CD0084B002A0BD0019228
:10329000009323000200064802F04AFD0120FFF7D8
:1032A000CBFF044BF1E7034AF1E7C046C4CA001064
:1032B000D4CA0010E4B9001070B52B4B2B4A1A6029
:1032C0002B4B2C4A1A602C4B9A682A4B9343FAD109
:1032D0002A4C01E008CC9847294B9C42FAD300F0D5
:1032E00001F9234B274A1A60234B9B68DB43DB0120
:1032F000FAD1254B40229A675A671A67DA66234C3F
:1033000009E0234B234A83212348FFF7B7FF20001E
:10331000FFF7E0FE0834214B9C4209D22368002BC2
:10332000F5D0012BEDD12000FFF7E1FE0834F2E7E4
:103330001B4CA1681B4DC022280002F0B1FBA56008
:10334000FCF791FF002800D000BEFEF735FAFEF72B
:103350008DFDFFF7EFF8144C01E008CC9847134BB4
:103360009C42FAD370BDC04600E00040BFCDFBFEDA
:1033700000F00040FE7F3C0000C00040600D0020D7
:10338000700D0020FFFFFF0100F00140580D0020EC
:1033900004CB001078CB001024CB0010600D00206F
:1033A00000ED00E000000020700D0020840D0020E2
:1033B0000FB400B583B0084802F088FC049B002BD2
:1033C00007D005A90191180002F090FC034802F013
:1033D0007DFC0120FFF730FF68CB0010F0B9001032
:1033E000F8B5DE4657464E464546E0B505000F00A7
:1033F00092460A9A93424ED31A0E91461E020A9A98
:1034000000233000494601F06FFB80466C006419D0
:10341000A4002F4B9C4664446368834200D26060E2
:103420002B1FDBB29B46012B3BD9C0239B012343BF
:10343000802212011A60AB00264A9958002905D053
:10344000506901F00FFB01300138FDD153465A019C
:1034500023685A40E0231A4080235B0123431A600B
:103460005A46012A28D980239B0123438022120136
:103470001A6043466360424600233000494601F02B
:1034800033FBAD00134B58510120F0BCBB46B24694
:10349000A946A046F8BD104B104A2D211048FFF751
:1034A000EDFE012FC1D1C0239B01234303221A60EB
:1034B000A368DB07FCD5C9E72168794003220A40ED
:1034C0001A60A2680123BB401342FAD0CBE7C04682
:1034D000008000400C16002088CB0010E0CB0010CC
:1034E0009CCB001030B583B00C2000F021F9FEF722
:1034F00059F900280DD0002304E099002D4A2E48E8
:1035000088500133092BF8D92A4B2C4A5A6203B050
:1035100030BD2B4B00229A6700F07CF9294B012229
:103520001A60274B5B6C012BFBD1274B03221A60DF
:10353000234B9B6B012BFBD1013300930433234AB4
:103540000121234800F054F805230093214A01216A
:10355000214800F04DF8214B009300220221042065
:10356000FFF73EFF1E4D00952B0000220121052094
:10357000FFF736FF104C00942300002200210720A3
:10358000FFF72EFF00942300002200210820FFF700
:1035900027FF0A4B00932300002200210920FFF798
:1035A0001FFF00952B00002200210620FFF718FFC7
:1035B000ADE7C0460C160020006CDC021BB7000013
:1035C000008000403CB0004030B00040002F6859FF
:1035D00000800240008C864700C00240001BB700FC
:1035E000405973078000014BC05870470C160020EB
:1035F000F0B5C64600B504000F0090461D000C2033
:1036000001F030FA06003D4A42443D4B9A4243D80D
:1036100043011B1A9901C91AC900091889014046BA
:1036200001F020FA0200103A98235B009A4239D840
:103630006B1E062B3CD8069B013B062B38D8069BFD
:103640009D423BD343461A09B2423DD32D04069B0B
:103650001E0335432368002B3CDB2A4B9C424AD097
:1036600080225201284B1A60284B1A60284B9B6815
:1036700011009943FAD12760A060231DC022920156
:103680001A43212313602368002BFCDAE56008232A
:10369000136080BCB846F0BD1E4B1F4A11211F4865
:1036A000FFF7ECFD1E4B1C4A19211C48FFF7E6FDF5
:1036B0001C4B194A1C211948FFF7E0FD1A4B164A0A
:1036C00022211648FFF7DAFD184B134A252113482B
:1036D000FFF7D4FD22683F231340BB42BDD1A3684E
:1036E0001B051B0D8342B8D1E368EE22D2021340C2
:1036F000AB42B2D1CDE780229201B3E780E84BD351
:1037000080F8A93200C0024000E0004000F0004014
:1037100000C00040F0CB00102CCD001050CC0010A9
:1037200090CC0010ACCC0010F8CC001010CD0010E4
:1037300080239B000343014AD36270470080054009
:10374000024B1A68024B5A607047C046E01E0020C8
:103750000080054010B50200164B8020C00518609F
:10376000154B1648186000290AD0154BE021C904F2
:103770001960002A09D1124B802212061A6010BD6E
:103780000C4BE021C9041960F3E753019B1A980020
:10379000801800010B4B186080235B04984202D311
:1037A000084B094A1A60FFF7CBFF054B8022D20570
:1037B0001A60E4E700B0054008200140FCFF01006A
:1037C00000A00540E01E0020FFFFFF0010B5030031
:1037D00010000C4A8024E4051460002B0DD0012257
:1037E0001343094A094CD461094C5C40146251628C
:1037F00093620021FFF7AEFF10BD034B0022DA6198
:10380000F7E7C04600B0054000800540D3C007B0D0
:103810002D3FF84F064BAA2212011A602F22DA60C0
:10382000044B054A1A60024B5B68002BFBDA7047B9
:10383000004002400060024000B0FA009A4200D20C
:1038400088547047704710B5002802D00B6849684B
:10385000984710BD0100002007E083001B185B00A3
:10386000501C08601078C01830380A681378303B54
:10387000DBB2092BF1D97047F0B5DE4657464E460C
:103880004546E0B583B093461F000C9B9A460D9CBD
:103890000E9B99460F9B9B0703D0B8460F0006006E
:1038A00022E00192A34688464E46B9460700B4423C
:1038B00007D2551C4B4641462020B84701342A0008
:1038C000F5E73D004F465C46019B9B46B1464646A8
:1038D000B84637002E0007E0013C551C5346185DE2
:1038E00043463900B0472A00002CF5D135003E0090
:1038F00047460F9B9B0707D4100003B0F0BCBB46A4
:10390000B246A946A046F0BDB0464E46B9462F0085
:103910005D46531BB342EFD2541C4B464146202018
:10392000B8472200F5E7F0B5CE46474680B585B0EA
:10393000944698460C9D0D9C0EAB1B789946109AA8
:10394000119B129EB7071CD4002B0CD0F7070AD589
:103950004F46002F02D10C37374204D0013B02E022
:1039600030272F550134944201D21F2CF8D9F70784
:1039700007D59C4205D21F2C03D830272F55013480
:10398000F5E7F70615D5770505D4002C03D094424A
:1039900024D09C4222D00F9A102A2BD00F9A102AA2
:1039A00030D00F9A022A35D01F2C02D830222A5547
:1039B00001341F2C05D84A46002A31D02D222A5521
:1039C0000134039602930194009543466246FFF743
:1039D00053FF05B0C0BCB946B046F0BD621E012C15
:1039E00006D00F9F102F01D01400D4E7023CD2E77D
:1039F0001400D0E7B206D1D41F2CCFD878222A5594
:103A00000134D1E7B206CCD51F2CCAD858222A558A
:103A10000134C9E71F2CC7D860322A550134C3E7E7
:103A2000720703D52B222A550134CAE73207C8D5BD
:103A300020222A550134C4E7F0B5DE4657464E46EB
:103A40004546E0B593B081468A46089209931CAB7F
:103A500010CB1B789B461E9D219B9846002C03D1C2
:103A6000102342469A4390468023DB0046461E4080
:103A700042461A4212D0002C22D000260EE03033EB
:103A8000D9B2771C0AAB99552900200000F0EAFF53
:103A9000AC4216D31F2F14D83E000400290020008A
:103AA00000F0E0FFCBB2092BE9D94246920605D5DA
:103AB0004121C918C9B20A39C9B2E2E76121F8E760
:103AC000270043460693209B05931F9B0493039571
:103AD0005B46029301970AAB0093099B089A5146F3
:103AE0004846FFF720FF13B0F0BCBB46B246A946DC
:103AF000A046F0BDF0B5DE4657464E464546E0B519
:103B000095B0089009910A920B931E9E1F9C20ABC2
:103B10001B789B46229B9946239D269B9A46330001
:103B2000234303D1103352469A4392468023DB004D
:103B300057461F4052461A4219D0330023432DD016
:103B4000002714E03033DAB27B1C98460CABDA5510
:103B50004A462B003000210000F0C6FFA5421FD8C6
:103B600019D043461F2B1BD8474606000C004A4677
:103B70002B003000210000F0B7FFD3B2092BE1D9B0
:103B80005246920605D54122D218D2B20A3AD2B292
:103B9000DAE76122F8E7B145E3D901E0002398466E
:103BA00053460693259B0593249B04934B4603930E
:103BB0005B460293434601930CAB00930B9B0A9A1E
:103BC00009990898FFF7AFFE15B0F0BCBB46B246A6
:103BD000A946A046F0BD0000F0B5DE4657464E4669
:103BE0004546E0B591B083468A460C9298461A9CA9
:103BF00008941B9D099522002B002000290001F04C
:103C000002FA002800D0E5E001225242D74B200002
:103C1000290001F0F3F9002800D0DBE00122524234
:103C2000D34B2000290001F0D3F9002800D0D1E0C7
:103C300000220023089D2800099E310001F0C8F9E8
:103C4000002800D0DDE008980999069007918023AC
:103C5000DB001E9A1A400D921E9A1A4201D10623C9
:103C60001C930698079904000D000A000600024301
:103C700000D1D1E0080D4005400DBE4CA446604483
:103C80000A03120BBC4B13431F0001F0CFF9BB4AD0
:103C9000BB4B01F05AF9BB4ABB4B01F02FF90400B2
:103CA0000D000022B94B3000390001F01EF9B84A6E
:103CB000B84B01F04AF902000B002000290001F086
:103CC0001DF901F0CBF9814601F0B0F904000D00B7
:103CD000B14AB24B01F039F90022B14B01F00EF9B3
:103CE00001F0BCF90600AF4AAF4B2000290001F0FB
:103CF0002CF904000D00300001F098F9AB4AAC4BF0
:103D000001F023F902000B002000290001F0EDF87A
:103D100004000D0002000B0001F017F90A900B914E
:103D2000A44BF31800261F0522002B0020002900B9
:103D300001F0E4F80E900F9122002B00002080216A
:103D4000C90501F0D2F804000D0000229A4B0A9830
:103D50000B9901F0DCF80022984B01F0CFF802003B
:103D60000B000A980B9901F0D2F80022944B01F055
:103D7000C5F802000B000A980B9901F0C8F8020080
:103D80000B002000290001F0B9F802000B000E988A
:103D90000F9901F0BCF80022774B01F0AFF8320028
:103DA0003B0001F0D2F806000F0004000D00069A57
:103DB000079B01F023F9002830D001235B429C4689
:103DC000E14400227D4B3000390001F0A0F80400EE
:103DD0000D0023E01E9B04931D9B03931C9B0293E9
:103DE000089A099B0092019343460C9A5146584603
:103DF00000F0FCF811B0F0BCBB46B246A946A046A4
:103E0000F0BD0023002406930794069580231B062B
:103E10009C46664407961AE7002399464B4663334F
:103E2000C62B1ED804261E9B1B0526D52B0023431C
:103E30000FD0644A644B0698079901F0D7F8002820
:103E400079D00022614B0698079901F0C1F800284B
:103E500071D01C9B4B4506DD4A46981A431E1C93A5
:103E600003E00526DFE700231C938023DB001E9A76
:103E70001A431E920026002399461D9B9E4264D23F
:103E80009F1B02231E9A1A400A921E9A134202D0C6
:103E9000002E00D000274B46002B07D022002B001D
:103EA0000698079901F033F8069007910022002345
:103EB0000898099901F08CF8002848D1444B1E9AC3
:103EC0001340049303971C9B0293069B079C00934B
:103ED000019443460C9A5146584600F087F8002E4C
:103EE00000D187E71E9B9B063DD54525441C4346D4
:103EF000020051462800D8474B46DA179B1853401A
:103F000005220592013E0496002203920A32029293
:103F10004A46D00F0190009343462200514658462E
:103F2000FFF78AFD0A9B002B00D163E702005F4682
:103F30000C9E1D9D54E01C9B002B9ED00D9B002BC6
:103F40009BD01C9B013B1C9397E7002799E7069C9D
:103F5000079D2200290080200006844661440B0052
:103F600006920793AAE76525C0E7C046FFFFEF7FEB
:103F7000FFFFEFFF01FCFFFF0000F03FFB799F50C8
:103F80001344D33FB3C8608B288AC63F0000F83F74
:103F900061436F63A787D23F71A379094F930A40AA
:103FA0000000E03F1655B5BBB16B0240EF39FAFE99
:103FB000422EE63FFF03000000002C40000024409A
:103FC000000018402D431CEBE2361A3F80842E413E
:103FD000FFF7FFFF541C434651462020B8472200FC
:103FE000931BAB42F6D3100004E7C046F0B5DE46A3
:103FF00057464E464546E0B595B006900791934624
:104000009946209F1E9A1F9B1000190000F0FBFF8D
:10401000002831D101225242BF4B1E981F9900F057
:10402000D7FF002837D101225242BC4B1E981F995E
:1040300000F0E4FF00283DD10022B94B1E981F99E3
:1040400000F0DCFF002850D10022B64B1E981F99CB
:1040500000F0BEFF002848D1002200231E981F99BF
:1040600000F0B6FF002850D100239846229B5B0544
:1040700000D4B6E0002458E0229B0393219B0293D6
:1040800003230193A84B00934B465A460799069881
:10409000FFF7F2FB0EE1229B0393219B0293042383
:1040A0000193A24B00934B465A4607990698FFF797
:1040B000E3FBFFE00423229A1A4022990B4210D01E
:1040C0009B4B002A0FD0042222990391219902913F
:1040D000019200934B465A4607990698FFF7CCFB8E
:1040E000E8E0944BEDE70322EEE7229B0493219B4B
:1040F000039302971E9B1F9C009301944B465A46C4
:1041000007990698FFF768FDD4E01E9A1F9B0020D0
:10411000002100F0EAFE1E901F9101239846A5E7BA
:104120000CAB30221A55013F01341F2C01D8092F46
:10413000F6D81E981F9900F091FF050000F076FF59
:1041400002000B001E981F9900F0CFFEFA007A4B78
:104150009B181A685B680A920B9300F0F6FE0890B1
:10416000099100F09FFF060000F05CFF02000B00C9
:104170000898099900F0B9FE0890099100226F4B48
:1041800000F03CFF00282ED00136300000F04AFF3E
:1041900002000B000A980B9900F020FF002801D0C4
:1041A00001350026002F2CD1280000F03FFF02002F
:1041B0000B001E981F9900F098FE06000F000022C9
:1041C0005E4B00F005FF002846D100225B4B30001B
:1041D000390000F013FF00283ED1EB073CD5013534
:1041E0003AE0062746E70022544B0898099900F068
:1041F000EFFE0028D6D1002E01D0F307D2D501362C
:10420000D0E7AA461F2C11D8013F0A21300000F048
:1042100029FC651C30310CAB19550A21300000F027
:1042200021FC092E0ED906002C00EBE755461F2C69
:104230000CD87B1E002F09D00CAA302111551F006D
:104240000134F4E72B0055461C00F0E71F2C03D87F
:104250000CAB2E221A5501341F2C10D80A2128002D
:1042600000F0D8FB661C30310CAB19550A21280030
:1042700000F0D0FB051E01D03400EDE7340003232D
:10428000229A1340012B1CD01F2C06D84346002B2A
:1042900032D00CAB2D221A550134229B0393219B63
:1042A000029301940CAB00934B465A46079906982B
:1042B000FFF7E2FA15B0F0BCBB46B246A946A046ED
:1042C000F0BD219B002B13D04346002B02D10C33B1
:1042D00013420FD0219B013B2193190003E00CAB4B
:1042E00030221A5501348C42CED21F2CF7D9CBE79D
:1042F0002199F8E72199F6E7229B5B0704D50CABDF
:104300002B221A550134C8E7229B1B07C5D50CABDD
:1043100020221A550134C0E7FFFFEFFFFFFFEF7FB8
:1043200065CDCD4165CDCDC144CD001048CD001047
:104330003CCD001038CD001030CF00100000E03F21
:10434000F0B5DE4657464E464546E0B593B0824648
:104350008B4690461193002900D1EBE20027554689
:10436000119B1878002800D1E7E2252809D07C1C91
:1043700043463A005946A847119B01331193270041
:10438000EEE7013311930024119A11780B00203BC2
:10439000D8B2102803D88300D048C3589F460B00DA
:1043A000303BDBB2092B2CD92A292FD000230A93CA
:1043B000119B1A782E2A39D000239A46119A137825
:1043C000683BD9B2122976D88B00C549CB589F4695
:1043D00001231C4301321192D6E702231C43013210
:1043E0001192D1E704231C4301321192CCE7082338
:1043F0001C4301321192C7E710231C430132119272
:10440000C2E711A8FFF726FA0A90D1E71C9B1A1DF4
:104410001C921868002804DB0A90119B0133119349
:10442000C6E702231C4343420A93F6E78022D200E8
:1044300014435A1C11925A781300303BDBB2092BFB
:1044400004D92A2A07D000239A46B7E711A8FFF714
:1044500001FA8246B2E71C9B1A1D1C9218680028BC
:1044600004DB8246119B01331193A7E70020F8E794
:1044700080235B002343511C119152786C2A01D098
:104480001C0018E0C0239B001C430131119112E075
:1044900080232343511C11915278682A01D01C00BB
:1044A00009E0C0231C430131119104E080235B002B
:1044B0001C4301321192119B18780300253BDAB29C
:1044C000532A00D92CE29300864AD3589F46802372
:1044D0009B001C4301321192EDE780235B001C43DB
:1044E00001321192E7E7782809D0582838D06F2890
:1044F00038D0622838D010239C430A2600E01026CA
:10450000582833D0692803D0642801D00C22944362
:10451000630501D50122944369282AD0642828D054
:10452000A30500D59FE0E30500D5B8E0630600D4FD
:10453000CAE01C9A111D1C911168FF220A400594C3
:104540000A9B04935346039302960023019300921F
:1045500043463A0059462800FFF76EFA070027E065
:104560001026CDE70826CBE70226C9E72022144310
:10457000C8E7A30520D4E30550D4630666D51C9A8A
:10458000111D1C911168FF220A40D317D118594000
:1045900005940A9B0493534603930296D20F01920B
:1045A000009143463A0059462800FFF745FA0700B4
:1045B000119B01331193D3E61C9BDA1D07218A431B
:1045C000110008311C91116853689C46DB170C934D
:1045D0000D930C9A0D9B100048400E90624653407C
:1045E0000F930E980F990C9A0D9B801A99410E907B
:1045F0000F9108940A9B0793534606930496002351
:1046000005936346DA0F02920090019143463A0007
:1046100059462800FFF76EFA0700C9E71C9A111DDA
:104620001C911268D317D118594005940A9B049322
:10463000534603930296D20F0192009143463A00EB
:1046400059462800FFF7F8F90700B1E7230605D51A
:104650001C9A111D1C910023D25E96E71C9A111D15
:104660001C91126891E71C9BDA1D07218A431100F7
:1046700008311C9108940A9B0793534606930496AD
:1046800000230593029313685468009301944346F2
:104690003A0059462800FFF72DFA070088E71C9AD0
:1046A000111D1C9105940A9B049353460393029693
:1046B000002301931368009343463A0059462800AB
:1046C000FFF7BAF9070073E723060DD51C9A111DF1
:1046D0001C9112681204120C31E7C04650CD001034
:1046E00094CD0010E0CD00101C9A111D1C91126891
:1046F00025E746281AD01C9B0733072293431A004C
:1047000008321C9204940A9A0392524602925C6800
:104710001B680093019443463A0059462800FFF76E
:1047200065FC0700119B0133119319E620231C43FC
:10473000E1E7672801D0472802D180231B011C43F1
:10474000452801D0472801D120231C431C9B073357
:10475000072293431A0008321C9204940A9A039287
:10476000524602925C681B680093019443463A00EB
:1047700059462800FFF730FA0700119B01331193C7
:10478000EEE502231A002240924623421FD0012464
:104790001C9B1A1D1C927A1C9146187843463A00BD
:1047A0005946A8475346002B16D1119B013311934C
:1047B0004F46D5E5561C434659462020B8472300AE
:1047C00032005C1C9D42F5D83D001700E0E7012354
:1047D0003A002F000A9DF4E74A46A9460A9D06E0E2
:1047E000571C434659462020C84734003A00661CEF
:1047F000A542F5D84D469146D7E71C9B1A1D1C9241
:104800001B6899465346002B00D1013B4E4601E000
:10481000013613003278002A02D05A1E002BF7D13D
:104820004B46F21A10928023DB0026001E401C42E9
:1048300003D0524501D95346109302231A00224057
:104840000B92234205D03A0037004C46A946554604
:1048500020E03A00109B5F46B3462E0006E0551C50
:10486000434639002020B04723002A005C1C0A99E7
:104870009942F4D835005E46BB46109437004C464A
:10488000A946554606E01D000134561C43465946CC
:10489000C84732002078002804D0002FF4D06B1EC7
:1048A000002DF0D117004D460B9B002B03D1119B1F
:1048B0000133119354E50A9F109B06E0561C4346B2
:1048C00059462020A847230032005C1C9F42F5D89F
:1048D0001700ECE721231C431C9B1A1D1C921B682C
:1048E00000930594082304935346039310230293E3
:1048F0000023019343463A0059462800FFF79CF8ED
:104900000700119B013311932AE57C1C43463A00B2
:1049100059462520A847119B0133119327001FE515
:104920007C1C43463A005946A847119B013311931A
:10493000270015E50A4B9A4610E5AA46474502D3DB
:1049400043465A1E00E03A00434659460020D047ED
:10495000380013B0F0BCBB46B246A946A046F0BD35
:10496000453800100EB410B585B0010007AC08CC76
:1049700003940122009452420348FFF7E1FC05B082
:1049800010BC08BC03B018473D38001000B585B016
:10499000029003910121009313004A4202A90248A8
:1049A000FFF7CEFC05B000BD4738001001480421D8
:1049B000014B1847A0040020DD49001010B501008C
:1049C00018231B8814221088984710BD10B50100C9
:1049D00018231B8816221088984710BDF0B5C646CC
:1049E00000B507000E0000250123984600E00135C0
:1049F000B5420AD2AC003C192068FFF7DFFF206007
:104A00000028F4D100239846F1E7404680BCB84620
:104A1000F0BD0000124A936F9B0815D29066D166D4
:104A2000002905D0FFE7FFE7FFE7516F106F7047E0
:104A300004B580210906C2175140002800D0C843A0
:104A400006F08AFF002104BDF0B5146E556E576F55
:104A5000166FFFF7E3FF1466556657671667F0BDDC
:104A6000000000D0114A936F9B0813D21066516664
:104A7000002905D0FFE7FFE7FFE7516F106F704790
:104A800004B5002801D00020C04306F065FF0021D6
:104A900004BDC046F0B5146E556E576F166FFFF724
:104AA000E5FF1466556657671667F0BD000000D035
:104AB00094464E4A926F9208624601D230E0C04658
:104AC000F0B54A4EB56F6D08FCD3346E756E776FD6
:104AD000366F00F025F89446444A146655665767C9
:104AE00016676246F0BDC0469446404A926F9208EF
:104AF000624601D258E0C046F0B53C4EB56F6D0835
:104B0000FCD3346E756E776F366F00F04DF89446B7
:104B1000364A14665566576716676246F0BDC0464A
:104B2000002B24DB11D000293EDA00B5C9434042F6
:104B300000D1013100F038F8C943404200D10131C1
:104B4000DB43524200D1013300BD002AEBD10028E3
:104B500001D1002905D00020C90FC90701D1C043E8
:104B6000410800B506F0F0FE0022002300BD00B5AC
:104B700000290ADBDB43524200D1013300F014F874
:104B8000C943404200D1013100BDC943404200D178
:104B90000131DB43524200D1013300F005F8DB4321
:104BA000524200D1013300BD002923D1002B18D17E
:104BB000002A0CD0BC460D4F38667A6600210023CF
:104BC000FFE7FFE7FFE77A6F386F67467047002817
:104BD00001D00748010000B506F0B6FE0022002310
:104BE00000BD02000B00002000217047000000D033
:104BF000FFFFFFFF002B00D0BFE0130C28D1002ADD
:104C0000E7D080B4114F39667A66FFE7FFE730B42A
:104C1000040C7B6F396F1B0423433B667A66FFE706
:104C2000FFE7FFE7C04684B27B6F3D6F1B04234361
:104C30003B667A66FFE7FFE7C04600232C042D0C95
:104C40007A6F386F00196941B0BC7047000000D01E
:104C5000F0B594460025140E01D112020835140F48
:104C600001D112010435940F01D192000235D40F05
:104C700001D152000135D40B0134254F7C66254CFF
:104C80003C660E0C93B2FFE7FFE7FFE73C6F66431D
:104C9000360C7703BE467343DF0B5B04C01AB94181
:104CA000130C7343DB18C91ACE086643360CB6449E
:104CB00093B273431F0F1B01C01AB941130C734306
:104CC0001F0B1B05C01AB941860D8F023E43664378
:104CD000360C092D24DB520A7243801A7703460AE8
:104CE0006643360C16235B1BDE40DF40BF1964466B
:104CF0006643821B7046043506330100D940A84044
:104D0000C01900D30131A24206D20023F0BD000039
:104D1000000000D0FFFFFFFF121B0130F3D3F1E7CB
:104D200009277F1BFE406446A2B27243801A00D25C
:104D30000139220C7243130C1204821A99410B00A0
:104D40007046043513370100F940A840801900D39C
:104D50000131002B02D1A2420AD2F0BD013000D3B2
:104D60000131121BFAD2013BF8D1A24200D2F0BDB0
:104D7000013000D30131121BF7E7F0B51C0C00D055
:104D800080E00CB400251C0A04D11B02160E33432C
:104D9000120208351C0B04D11B01160F33431201FC
:104DA00004359C0B04D19B00960F334392000235CF
:104DB000DC0B02D192185B4101351C00971864414D
:104DC0000134464F7C66464C3C660E0CFFE7FFE71D
:104DD000FFE7C0463C6F6643360C7703BE4697B28A
:104DE0007743C01B00D20139C01B00D201399FB2EA
:104DF0007743C91BC91B170C77437E04FF0B801B2D
:104E0000B941CE086643360C0C2D33DBB644120B89
:104E10001F053A431B0B97B27743C01B00D20139E1
:104E20009FB27743C91B170C77433E043F0C801B8E
:104E3000B941860D8F023E43664329277F1BFE4002
:104E40000C3D7746AF40BF1930BCA2B2ABB2724343
:104E50007343801A9941220C7243130C1204801A76
:104E6000994102000B000137001BA941F9D2781EBD
:104E70000021F0BD0C277F1BFE4077467F0BAF4023
:104E8000FF19E0E700245D1C07D0144F7D663966EA
:104E9000FFE7FFE7FFE7FFE73C6F95B29EB2654390
:104EA0006643401BB141150C1E0C65436643360436
:104EB0002F0C3E432D04401BB141994204D2020005
:104EC0000B0020000021F0BD01D19042F7D3801AE1
:104ED000994101349942F2D3F6E70000000000D076
:104EE000FFFFFFFF48404140484018B41B4B5B6840
:104EF000FC46019308BD04DFD751001018B4174BCE
:104F00001B68FC46019308BD00DFE1510010944688
:104F1000134A926F920809D2624618B40F4BDB68AD
:104F2000FC46019308BD0CDF995400100C4AF0B503
:104F3000146E556E576F166F6246FFF7EEFF084A04
:104F40001466556657671667F0BD18B4034B9B6827
:104F5000FC46019308BD08DF3D530010001F0020F0
:104F6000000000D0FFB550404240504059404B40F7
:104F7000594000E0FFB5154F4C00640D03D0BC4212
:104F800004D10C0314D80020090D09055C00640D40
:104F900003D0BC4204D11C030AD800221B0D1B0500
:104FA00001264B4009D44B4003D58B4200D18242AD
:104FB000FFBD9942FCD19042FFBD0B43DB18034378
:104FC0001343F5D0C9434918FFBD0000FF07000097
:104FD00000B5FFF7CFFF804100BDC04600B5FFF729
:104FE000C9FF01D9002000BD012000BD00B5FFF7B9
:104FF000B9FF01D9002000BD012000BD00B5FFF7B9
:10500000B1FF804100BD012040054A00121804D8BC
:105010005A00121801D80020704701207047002064
:10502000704700000021002805D17047C117484093
:10503000401AFAD0C90713B5064B1B6898470CBC39
:10504000441CA2401005120B0349091B0905194312
:10505000114310BD002000201F04000010B54C00BB
:10506000620D8023D218DB00D21A5B057E2A10DD88
:105070009E3A13DACC170903490819435242D1402A
:10508000640001341532202A05DAD0400843604319
:1050900010BD002010BD0846604310BDC80FC018E9
:1050A000013810BD18B4044B5B6AFC46019308BD7F
:1050B00024DF495600100000001F002018B4044BE4
:1050C000DB6FFC46019308BD7CDFC9560010000071
:1050D000001F002070B513231C78012C14D0012C64
:1050E00014DC022C02DC1F4A1F4B9A641F48FFF796
:1050F00065FC1F4B186070BD99001A481A4A885009
:1051000001331F2BF8D9EAE70023FAE71948FFF724
:105110005DFC05001848FFF759FC023803789B0036
:105120007F2B19DD802229000F4800F0B9FC022CEA
:10513000D7D1124B1A88B5231B029A4209D1104BC2
:105140001A88104B9A4204D10F4B1A880F4B9A427F
:10515000C7D00020FEF72CF90D4B0E4A32210E4825
:10516000FEF78CF89D510010001F00204C3300000A
:105170000020002053440000534600005438000033
:10518000D8380000494600009C380000594600000D
:1051900080CF001028D00010E0CF001007B5604687
:1051A000002800D100BE01880A0A0230DF2AFAD1A5
:1051B000C9B2820804D3028840880004104300E08A
:1051C0000068024A5050039007BD0000001F0020F5
:1051D0000FB403BC0CBCF0B50124E407634000E04D
:1051E000F0B50C0DCF0F661E3605891B640503D381
:1051F000C943404200D30131640D03D0661CF60A56
:1052000007D0E41B00207F00791C89078912803CAD
:1052100024031D0DDF0F6E1E36059B1B6D0503D38A
:10522000DB43524200D301336D0D03D06E1CF60AEE
:1052300007D0ED1B00227F007B1C9B079B12803D4B
:105240002D032F1B661B58D4A446202E46DA203788
:105250001400BC401D00BD40F24033412A43801879
:105260005941CB0F05D0C943C0430022644250418D
:10527000514162464D0D28D10D0D07D100281FD098
:10528000241940414941013A0D0DF9D0640006D37B
:10529000013000D30131002C01D140084000013A17
:1052A0000BD4941CE40A04D112051144DB07194401
:1052B000F0BDD907204B194300E0D9070020F0BD0D
:1052C0000029DDD1002CDBD1F0BD0132C60740083A
:1052D000CD0728434908002EE1D0D9E73C2E29DA32
:1052E000203E40371400BC4000D00124F24014435B
:1052F0001A00BB401C43D317ACE7AC46202F08DA9A
:1053000020360400B4400D00B540F8403941284330
:10531000A5E73C2F0CDA203F40360400B44000D013
:105320000124F84004430800B1400C43C117EAE7E8
:1053300010001900002494E70000F07FF0B50C0D78
:10534000661E3605891BE60A6405640D02D0651CDD
:10535000ED0A04D0002001210905803C2403A44665
:105360001C0D671E3F05DB1BE70A6405640D02D0B8
:10537000651CED0A04D0002201231B05803C240398
:105380007740644497B484B296B27443070C7E436A
:10539000150C6F4380B26843361802D30120000415
:1053A0003F183004350C00197D41844688B29AB20A
:1053B00050430C0C62431F0C7C438EB27E43921907
:1053C00002D301263604A4191604170C36186741B7
:1053D00001BC81B29AB25143040C62431B0C5C4382
:1053E00080B25843121802D301200004241810047C
:1053F000130C401863412D185E410020474106BC44
:1054000088B293B258430C0C6343120C544389B2D4
:1054100051435B1802D301210904641819041A0CC2
:10542000091862416D1856410020474118BCF90225
:10543000720D1143F0026A0D1043ED020A0D03D103
:105440006D1940414941013B124E9B1B7600B3420E
:105450000ED26D0007D301300026714166463543F8
:1054600001D1400840001B05C918E4072144F0BDE4
:105470000BDA013306D1013004D101314F0D01D0D7
:105480004908F2E7E1070020F0BD013631050020B0
:10549000EBE70000FF030000F0B51C0D671E3F05A1
:1054A000DB1BE70A6405640D02D0661CF60A04D013
:1054B000002201231B05803C2403D0252D06002655
:1054C000F6432E661E096E66CE0FF619B4464900E5
:1054D0004F0D02D07E1CF60A03D000200021403F71
:1054E0003F033E1BB600B444013F7F05C91B49087A
:1054F0002E6F013676089C02950D25437543ED13FA
:105500007543AD1301356D10F603761B0CB4CC0258
:10551000450D2C43A2B2B3B25A43270C7B43350C42
:105520006F43A4B26C431B1902D3012424043F1916
:105530001C041D0CA4187D4124196D41009A91B2E0
:10554000ACB26143170C7C432B0C5F4392B25A43BD
:10555000A41802D301221204BF182204230C5218EB
:105560007B41019C6C431B19520ED9010A43440133
:10557000A01A81B2B2B2514303145A43360C73439A
:1055800087B27743D617D21900277E4136049B197C
:105590001704160C7F185E417316ED18F3010026F0
:1055A00080337541A90F06D16400690AE8055B0ADA
:1055B000184309D22FE00422944480337541A90A8C
:1055C000A8059B0A184326D3404149412404009A68
:1055D000019B0D005543641B4343E41A95B286B208
:1055E0007543170C7E43030C5F4392B25A43B618BF
:1055F00002D301221204BF183204330C52197B412A
:1056000052429C41002C02D40022013051414008FA
:10561000CA071043490802B06246D7079210084BE8
:10562000D218084B9A4203D212058918C919F0BD45
:105630000020002A01DC3900F0BD01331905F5E72F
:10564000FD030000FE070000002200B5203200F03C
:1056500004F8080000BD000000220B150AD410B5A4
:10566000944600F05FF81414013400DA0021CB17DF
:10567000144C20470020002170476244343A0CD477
:105680000C2A07DA04009140904052422032D44064
:10569000214310BDD843D94310BD203207D40C4656
:1056A0009440524220321141D040204310BD0800A6
:1056B000C917203203D452422032104110BD1800C5
:1056C000190010BD7B5600104A00520D144BD21A1F
:1056D00013DDFF2A1EDAD205CB0FDB071A43C30006
:1056E000400F0903490A084310435B0001D301D06E
:1056F000013070474308FBD2704702D0C80FC00783
:1057000070470A0312130132F8D1420F072AF5D16C
:10571000012200E0FF22C80F00028018C005704778
:10572000800300000A0DCC0F531E1B05C91A520539
:1057300003D3C943404200D30131520D03D0531C5F
:10574000DB0A07D0121B00206400611C8907891244
:10575000803A1203014BD21A70470000FF03000089
:1057600051434343C9188C46110C83B24B4310B4C8
:10577000040C614392B280B2504362431C041B0C80
:10578000001910BC59411304120CC0185141614456
:105790007047000048404140484000239C46114B60
:1057A0005B68184700239C460E4B1B6818470E4A3F
:1057B000936F9B0804D200239C460A4BDB68184772
:1057C000F0B5146E556E576F166FFFF7F4FF064A6B
:1057D0001466556657671667F0BD00239C46014B5B
:1057E0009B68184704200020000000D007B54840FF
:1057F0004140484001E0C04607B54200120E03D0C8
:10580000FF2A03D1420218D8C00DC0054A00120E6B
:1058100003D0FF2A03D14A020FD8C90DC9050122BE
:10582000414005D4414001D5814207BD884207BDB2
:105830000143491801D0C043001807BD00B5FFF768
:10584000DBFF804100BDC04600B5FFF7CFFF8041C0
:1058500000BD491A002807D108467047C10FC90783
:1058600000D54042002817D0F44603B40B4B1B6808
:10587000984706BC81409E384042803107D20B06D3
:1058800007D04900490AC00510430843604701306A
:10589000F8E7490A8902F5E7704700000020002078
:1058A000034BDB6FFC4618477CDF295A00100000D1
:1058B0000420002070B513231D782A48FFF786F8CE
:1058C0000400012D11D0012D09DDA31E1B789B00C2
:1058D0007F2B40DD80222100234800F0E1F823489F
:1058E000FFF76CF8224B186070BD542201001E486F
:1058F00000F0D6F81F4B1A881F4B9A421CD1A723E1
:105900009B011A881D4B9A4216D11D4B1A881D4BBC
:105910009A4211D11C4B1A8894239B019A420BD1B5
:105920001A4B1A881A4B9A4206D11A4B1A681A4B0C
:105930009A4201D1152307E01848FDF739FD990077
:105940001748094A885001331F2BF8D9144A064BCF
:105950001A62DA61B7E7134B134A42211348FDF785
:105960008DFCC04653460000042000204C3300004C
:1059700000200020EE290000C40F0000C20D00002E
:10598000962B0000C0B50000182B0000CC2A0000A8
:1059900010B50000FC2C000051ED8764E4B9001044
:1059A000F55900103CD00010B8D0001070D0001095
:1059B00010B50300C10DFF2422000A400C420ED096
:1059C0007F3A0FD41721891A00290ADD01228A4063
:1059D000511E002800DA0B185042184001E0C00F99
:1059E000C00710BD002801DA0148FAE70020F8E7F7
:1059F000000080BF07B56046002800D100BE0188C6
:105A00000A0A0230DF2AFAD1C9B2820804D3028816
:105A100040880004104300E00068024A50500390A0
:105A200007BD000004200020C30FDB0741000A0E61
:105A300007D0FF2A08D00909054A891819434007E9
:105A400070471900002070470249C918FAE70000A2
:105A5000000000380000F07F10B5040005F00EFBD8
:105A6000002804D00419034B9C4200D810BD024802
:105A7000FDF79EFC00000420CCD0001010B505F00E
:105A800007FB10BD01480421014B1847B00400205A
:105A9000DD490010014B1B6818470000B0040020CE
:105AA000014B5B6818470000B004002010B5FFF7F9
:105AB000E5FF10BD10B50300080011001B689847F2
:105AC00010BD0000F8B507000D001600437C002B48
:105AD00002D0002400200CE0036811002800984741
